S011000041546D6567615F56322E73726563FD
S11300000C9434000C9451000C9451000C94510045
S11300100C9451000C94E9000C9451000C94510080
S11300200C9451000C9451000C9451000C94510008
S11300300C9451000C9451000C9451000C945100F8
S11300400C9451000C9451000C9451000C945100E8
S11300500C9451000C9451000C9451000C945100D8
S11300600C9451000C94510011241FBECFEFD8E022
S1130070DEBFCDBF11E0A0E0B1E0E8E9F2E002C0EC
S113008005900D92AE30B107D9F721E0AEE0B1E0B2
S113009001C01D92A431B207E1F70E9413010C9430
S11300A04A010C9400008AB183708AB98BB18C6FB9
S11300B08BB984B1806284B9E8E6F0E08081846021
S11300C08083EDE6F0E080818C6F80830E941E01C6
S11300D07894089580911301882381F08FED9BEA31
S11300E00197F1F700C000001092130180E091E045
S11300F00E94390182E091E00E943901809112014D
S1130100882381F08FED9BEA0197F1F700C000008E
S11301101092120184E091E00E94390182E091E0A2
S11301200E94390180911101882381F08FED9BEAAF
S11301300197F1F700C000001092110186E091E0F0
S11301400E94390182E091E00E94390180911001FE
S1130150882381F08FED9BEA0197F1F700C000003E
S11301601092100188E091E00E94390182E091E050
S11301700E94390180910F01882381F08FE99FE06B
S11301800197F1F700C0000010920F018AE091E09E
S11301900E94390182E091E00E94390180910E01B0
S11301A08823B1F08FE99FE00197F1F700C00000C8
S11301B010920E018CE091E00E94390182E091E0FE
S11301C00E9439018FED9BEA0197F1F700C000000E
S11301D008951F920F920FB60F9211248F934A998C
S11301E003C081E0809313014B9903C081E08093A5
S11301F012014C9903C081E0809311014D9903C011
S113020081E0809310014E9903C081E080930F0137
S11302104F9903C081E080930E018F910F900FBE20
S11302200F901F9018950E9453000E946A008FE35C
S11302309CE90197F1F700C00000F7CF8AB18E7FE7
S11302408AB98AB182608AB91092C000E1ECF0E008
S11302501082808188698083E2ECF0E010828081E2
S11302608660808387E690E09093C5008093C40005
S11302700895AC0120E007C09091C00095FFFCCF29
S11302803093C6002F5FFA01E20FF11D3081311166
S10B0290F3CF0895F894FFCFA9
S111029831000A0032003300340041004200FD
S9030000FC
