S011000041546D6567615F56322E73726563FD
S11300000C9434000C9451000C9451000C94510045
S11300100C9451000C94F5000C9451000C94510074
S11300200C9451000C9451000C9451000C94510008
S11300300C9451000C9451000C9451000C945100F8
S11300400C9451000C9451000C9451000C945100E8
S11300500C9451000C9451000C9451000C945100D8
S11300600C9451000C94510011241FBECFEFD8E022
S1130070DEBFCDBF11E0A0E0B1E0E8E0F3E002C0F4
S113008005900D92AE30B107D9F721E0AEE0B1E0B2
S113009001C01D92A431B207E1F70E944B010C94F8
S11300A082010C9400008AB183708AB98BB18C6F81
S11300B08BB984B1806284B9E8E6F0E08081846021
S11300C08083EDE6F0E080818C6F80830E9456018E
S11300D07894089580911301882399F01092130164
S11300E080E091E00E94710182E091E00E94710140
S11300F02FEF81EE94E0215080409040E1F700C062
S1130100000080911201882399F01092120184E07A
S113011091E00E94710182E091E00E9471012FEF51
S113012081EE94E0215080409040E1F700C000004F
S113013080911101882399F01092110186E091E0D9
S11301400E94710182E091E00E9471012FEF81EE23
S113015094E0215080409040E1F700C0000080917D
S11301601001882399F01092100188E091E00E9418
S1130170710182E091E00E9471012FEF81EE94E021
S1130180215080409040E1F700C0000080910F01B1
S1130190882399F010920F018AE091E00E94710186
S11301A082E091E00E9471012FEF81EE94E02150F2
S11301B080409040E1F700C0000080910E01882348
S11301C099F010920E018CE091E00E94710182E09E
S11301D091E00E9471012FEF81EE94E02150804064
S11301E09040E1F700C0000008951F920F920FB6EF
S11301F00F9211248F939F934A9908C090911301F1
S113020081E0911180E0809313013EC04B9908C0B6
S11302109091120181E0911180E08093120134C029
S11302204C9908C09091110181E0911180E0809374
S113023011012AC04D9908C09091100181E09111DB
S113024080E08093100120C04E9908C090910F0166
S113025081E0911180E080930F0116C04F9908C08E
S113026090910E0181E0911180E080930E010CC009
S113027010921301109212011092110110921001A8
S113028010920F0110920E019F918F910F900FBE4B
S11302900F901F9018950E9453000E946A008FE3EC
S11302A09CE90197F1F700C00000F7CF8AB18E7F77
S11302B08AB98AB182608AB91092C000E1ECF0E098
S11302C01082808188698083E2ECF0E01082808172
S11302D08660808387E690E09093C5008093C40095
S11302E00895AC0120E007C09091C00095FFFCCFB9
S11302F03093C6002F5FFA01E20FF11D30813111F6
S10B0300F3CF0895F894FFCF38
S111030831000A00320033003400420041008C
S9030000FC
