S012000041546D656761333238502E73726563F6
S11300000C9434000C9446000C9446000C94460066
S11300100C9446000C9469000C9446000C94460021
S11300200C9446000C9446000C9446000C94460034
S11300300C9446000C9446000C9446000C94460024
S11300400C9446000C9446000C9446000C94460014
S11300500C9446000C9446000C9446000C94460004
S11300600C9446000C94460011241FBECFEFD8E038
S1130070DEBFCDBF21E0A0E0B1E001C01D92A13000
S1130080B207E1F70E9480000C9485000C940000F4
S11300908AB18F7E8AB98BB180618BB984B1806259
S11300A084B9E8E6F0E0808184608083EDE6F0E0E6
S11300B080818061808378940895809100018823F1
S11300C021F085B1806285B9089585B18F7D85B9A8
S11300D008951F920F920FB60F9211248F939F933E
S11300E04C9907C09091000181E0911180E08093C8
S11300F000019F918F910F900FBE0F901F90189544
S11101000E9448000E945D00FDCFF894FFCFDE
S9030000FC
